:020000040000fa
:080000000002040000000000f2
:020000040000fa
:04000800c80200002a
:020000040000fa
:04000c00c802000026
:020000040000fa
:04001000c802000022
:020000040000fa
:04001400c80200001e
:020000040000fa
:04001800c80200001a
:020000040000fa
:04001c00c802000016
:020000040000fa
:04002000c802000012
:020000040000fa
:04002400c80200000e
:020000040000fa
:04002800c80200000a
:020000040000fa
:04002c00c802000006
:020000040000fa
:04003000c802000002
:020000040000fa
:04003400c8020000fe
:020000040000fa
:04003800c8020000fa
:020000040000fa
:04003c00c8020000f6
:020000040000fa
:04004000c8020000f2
:020000040000fa
:04004400c8020000ee
:020000040000fa
:04004800c8020000ea
:020000040000fa
:04004c00c8020000e6
:020000040000fa
:04005000380800006c
:020000040000fa
:04005400c8020000de
:020000040000fa
:04005800c8020000da
:020000040000fa
:04005c00c8020000d6
:020000040000fa
:04006000c8020000d2
:020000040000fa
:04006400c8020000ce
:020000040000fa
:04006800c8020000ca
:020000040000fa
:04006c00c8020000c6
:020000040000fa
:04007000c8020000c2
:020000040000fa
:04007400c8020000be
:020000040000fa
:04007800c8020000ba
:020000040000fa
:04007c00c8020000b6
:020000040000fa
:04008000c8020000b2
:020000040000fa
:04008400c8020000ae
:020000040000fa
:04008800c8020000aa
:020000040000fa
:04008c00c8020000a6
:020000040000fa
:04009000c8020000a2
:020000040000fa
:04009400c80200009e
:020000040000fa
:04009800c80200009a
:020000040000fa
:04009c00c802000096
:020000040000fa
:0400a000c802000092
:020000040000fa
:0400a400c80200008e
:020000040000fa
:0400a800c80200008a
:020000040000fa
:0400ac00c802000086
:020000040000fa
:0400b000c802000082
:020000040000fa
:0400b400c80200007e
:020000040000fa
:0400b800c80200007a
:020000040000fa
:0400bc00c802000076
:020000040000fa
:0400c000c802000072
:020000040000fa
:0400c400c80200006e
:020000040000fa
:0400c800c80200006a
:020000040000fa
:0400cc00c802000066
:020000040000fa
:0400d000c802000062
:020000040000fa
:0400d400c80200005e
:020000040000fa
:0400d800c80200005a
:020000040000fa
:0400dc00c802000056
:020000040000fa
:0400e000c802000052
:020000040000fa
:0400e400c80200004e
:020000040000fa
:0400e800c80200004a
:020000040000fa
:0400ec00c802000046
:020000040000fa
:0400f000c802000042
:020000040000fa
:0400f400c80200003e
:020000040000fa
:0400f800c80200003a
:020000040000fa
:0400fc00c802000036
:020000040000fa
:04010000c802000031
:020000040000fa
:04010400c80200002d
:020000040000fa
:04010800c802000029
:020000040000fa
:04010c00c802000025
:020000040000fa
:04011000c802000021
:020000040000fa
:04011400c80200001d
:020000040000fa
:04011800c802000019
:020000040000fa
:04011c00c802000015
:020000040000fa
:04012000c802000011
:020000040000fa
:04012400c80200000d
:020000040000fa
:04012800c802000009
:020000040000fa
:04012c00c802000005
:020000040000fa
:04013000c802000001
:020000040000fa
:04013400c8020000fd
:020000040000fa
:04013800c8020000f9
:020000040000fa
:04013c00c8020000f5
:020000040000fa
:04014000c8020000f1
:020000040000fa
:04014400c8020000ed
:020000040000fa
:04014800c8020000e9
:020000040000fa
:04014c00c8020000e5
:020000040000fa
:04015000c8020000e1
:020000040000fa
:04015400c8020000dd
:020000040000fa
:04015800c8020000d9
:020000040000fa
:04015c00c8020000d5
:020000040000fa
:04016000c8020000d1
:020000040000fa
:04016400c8020000cd
:020000040000fa
:04016800c8020000c9
:020000040000fa
:04020800c802000028
:020000040000fa
:04020c00c802000024
:020000040000fa
:04021000c802000020
:020000040000fa
:04021400c80200001c
:020000040000fa
:04021800c802000018
:020000040000fa
:04021c00c802000014
:020000040000fa
:04022000c802000010
:020000040000fa
:04022400c80200000c
:020000040000fa
:04022800c802000008
:020000040000fa
:04022c00c802000004
:020000040000fa
:04023000c802000000
:020000040000fa
:04023400c8020000fc
:020000040000fa
:04023800c8020000f8
:020000040000fa
:04023c00c8020000f4
:020000040000fa
:04024000c8020000f0
:020000040000fa
:04024400c8020000ec
:020000040000fa
:04024800c8020000e8
:020000040000fa
:04024c00c8020000e4
:020000040000fa
:04025000c8020000e0
:020000040000fa
:04025400c8020000dc
:020000040000fa
:04025800c8020000d8
:020000040000fa
:04025c00c8020000d4
:020000040000fa
:04026000c8020000d0
:020000040000fa
:04026400c8020000cc
:020000040000fa
:04026800c8020000c8
:020000040000fa
:04026c00c8020000c4
:020000040000fa
:04027000c8020000c0
:020000040000fa
:04027400c8020000bc
:020000040000fa
:04027800c8020000b8
:020000040000fa
:04027c00c8020000b4
:020000040000fa
:04028000c8020000b0
:020000040000fa
:04028400c8020000ac
:020000040000fa
:04028800c8020000a8
:020000040000fa
:04028c00c8020000a4
:020000040000fa
:04029000c8020000a0
:020000040000fa
:04029400c80200009c
:020000040000fa
:04029800c802000098
:020000040000fa
:04029c00c802000094
:020000040000fa
:0402a000c802000090
:020000040000fa
:0402a400c80200008c
:020000040000fa
:0402a800c802000088
:020000040000fa
:0402ac00c802000084
:020000040000fa
:0402b000c802000080
:020000040000fa
:0402b400c80200007c
:020000040000fa
:0402b800c802000078
:020000040000fa
:0402bc00c802000074
:020000040000fa
:0402c000c802000070
:020000040000fa
:0402c400c80200006c
:020000040000fa
:0402c800c802000068
:020000040000fa
:0402cc00c802000064
:020000040000fa
:0402d000c802000060
:020000040000fa
:0402d400c80200005c
:020000040000fa
:0402d800c802000058
:020000040000fa
:0402dc00c802000054
:020000040000fa
:0402e000c802000050
:020000040000fa
:0402e400c80200004c
:020000040000fa
:0402e800c802000048
:020000040000fa
:0402ec00c802000044
:020000040000fa
:0402f000c802000040
:020000040000fa
:0402f400c80200003c
:020000040000fa
:0402f800c802000038
:020000040000fa
:0402fc00c802000034
:020000040000fa
:04030000c80200002f
:020000040000fa
:04030400c80200002b
:020000040000fa
:04030800c802000027
:020000040000fa
:04030c00c802000023
:020000040000fa
:04031000c80200001f
:020000040000fa
:04031400c80200001b
:020000040000fa
:04031800c802000017
:020000040000fa
:04031c00c802000013
:020000040000fa
:04032000c80200000f
:020000040000fa
:04032400c80200000b
:020000040000fa
:04032800c802000007
:020000040000fa
:04032c00c802000003
:020000040000fa
:04033000c8020000ff
:020000040000fa
:04033400c8020000fb
:020000040000fa
:04033800c8020000f7
:020000040000fa
:04033c00c8020000f3
:020000040000fa
:04034000c8020000ef
:020000040000fa
:04034400c8020000eb
:020000040000fa
:04034800c8020000e7
:020000040000fa
:04034c00c8020000e3
:020000040000fa
:04035000c8020000df
:020000040000fa
:04035400c8020000db
:020000040000fa
:04035800c8020000d7
:020000040000fa
:04035c00c8020000d3
:020000040000fa
:04036000c8020000cf
:020000040000fa
:04036400c8020000cb
:020000040000fa
:04036800c8020000c7
:020000040000fa
:100400002f8020000eff20000e0188000000000059
:10041000000020000000e000020032000001200087
:1004200020028800140007005b0007000000e000c5
:1004300003003a004088200001002000020037003d
:100440000000200001002000810f70000100320038
:1004500014000700000020000000e000020032004d
:1004600000000200000000005e0802000000000022
:100470000040da000000fe004440a9000000200017
:100480000000e0000300320000002000a00188000e
:100490004440a800000006008a1f78008b1f7800e7
:1004a0000000060091018800800478000000eb0045
:1004b0001a003700e284440032a0b4009905ba0063
:1004c000e284440032a0b4009906ba00e2844400f9
:1004d00032a0b4000006eb00476fde00fd07b2005b
:1004e000636ce10003003a00ebff07000000eb0043
:1004f0000a003700606ce10004003a00005deb0088
:100500008b05e900fdff3e00040037006168e10053
:10051000010032000086eb000b00070019c7ba008b
:100520001905ba000e04e00003003a000a00e000da
:10053000e0ff3a0000000600fe07b2009e018800be
:100540008a047800f5ff3700395dba008b05e900b1
:100550000c003200295dba008b05e900080032006a
:100560000c00e00003003a00e284440032a0b40032
:10057000f5ff370019ddba008b05e900faff3a00f4
:100580008904e800e184440032a0b40000000600c1
:100590000040da000000fe000000050003f0a200a9
:1005a000889fbe008a9fbe008c1f7800150107003f
:1005b0001c0133006450e1004f0032006420e10070
:1005c0005200320003826c0007003b000905d00096
:1005d0000306d000820f54000c065d0002003900b3
:1005e00002003200890178000306780085825500f8
:1005f00004003d000003fd008103fd008502ea00c8
:100600008b854200840f720002003b0060001000e6
:10061000e08018006011b8000005eb007a28e100c6
:100620000a00390006007800c75ddd00f707b20058
:10063000878075002d003700828171000a017800e3
:10064000610560008180d1000080d3008502e9004f
:10065000f9ff3b00060440008784480002003b008d
:1006600060041400e0841c000988a3000700320025
:100670008a81710082817100610164008904d10066
:100680000884d3008b05e800170037000978a30021
:1006900013003a000b00e000130034008b05e90062
:1006a0000804440089844c000a4474000978a300bb
:1006b0000d003a000b00e000070034008b05e90054
:1006c0000804440089844c0001003a000b0020001b
:1006d0000978a300f7ff32000001eb0002003700a9
:1006e000828171000a0178008b0007000cf0a700de
:1006f00001f0a000d40037006420e10002003a00bd
:10070000838f6c00d40033000801be000200be00dd
:10071000cd003700889fbe008a9fbe008c1f7800e6
:10072000b8000700bf00330003866c006450e1008e
:100730002e0032006420e100330032006150e100fd
:100740002f0032006120e100310032008585550024
:10075000eb07b00009002000080420000500370066
:100760000804440089844c000a0031000603430059
:1007700087834b000001530081815b00f8ff330049
:100780000203be000800a0000804440089844c0055
:10079000f6ff3900c639dd00830173000100320025
:1007a000130020008904d1000884d3000998a30015
:1007b000050032000800a7000300a0008904d10052
:1007c0000884d3008b05e8008904d1000884d30095
:1007d0000001eb000281d2004f00070001f0a100f0
:1007e0000cf0a70001f0a000970037006420e100a2
:1007f000990032000801be000200be00f7ff37007a
:100800006120e100940032006000b800f3ff37007f
:100810000000200001f82700f0ff37000001be00b3
:10082000630007000470a70003f0a1006509b10090
:10083000160032000d0035006828e1000600350082
:10084000f0ff2f00f1ff27000300e00013003b0042
:1008500001002800000005000000400081804800e1
:100860008502e900fcff3a0008003700f88f4200db
:1008700002003c008000eb00000005008100d10078
:100880000080d3008502e800fcff3a000300e0008e
:1008900002003b0060001000e0801800000006002d
:1008a0000001be00420007000470a70003f0a10091
:1008b00003f8a30013003a006509b10010003200ec
:1008c000090035006928e100020035000100280018
:1008d0000000050000004000818048008502e9001a
:1008e000fcff3a0000000600f88f420005003500ca
:1008f0008100d1000080d3008502e800fcff3a00af
:10090000000006008000eb00000005004f89de00bb
:100910008201780087003700810020006180550047
:100920000b003d000b00200061fe2f000100e100e4
:100930001d00340082817100610164008904d100ce
:100940000884d3000000e800faff3a00710020009c
:1009500061006400030070000200600009003200c2
:1009600061044400e0844c000988a50005003200c1
:100970008b05e8006808e10002003a008904d10014
:100980000884d300f20f20000258e10005003d006a
:10099000c75ddd00f907b2008980750008007800a6
:1009a000000006000bf827008b007800000005000f
:1009b000c70ade00f107b200f50fb20008003200ee
:1009c000e1cf4200020032000170a00024000500c7
:1009d000810f70000100320004080500440005008a
:1009e000810f700002003a00140005008502e90042
:1009f0000000400081c04800fcff3b000170a000e7
:100a0000240005000004be00e9ff07000003be004b
:100a10000405be000200be00e5ff0700844f75001c
:100a2000000006000200be006450e1000500360030
:100a30006420e100020036000968a30001003a00ca
:100a40000800be000160a0004f0678004f05be0000
:100a50004f04be0000000600f0ff2f00f1ff27004a
:100a6000f9ff3700889fbe008a9fbe008c1f780068
:100a7000e4ff0700ebff330003866c006450e100e5
:100a8000240032006420e100270032006150e100c0
:100a9000220032006120e100210032008b854200fb
:100aa000eb07b1000134b800003ab8000804420076
:100ab00089844a00013ab8000030b80088804000bc
:100ac00009014a0004003300000040008180480012
:100ad000020149008b05e900c909dd0083017000ae
:100ae0000100320013002000c814de004814dd00ad
:100af0004709de001200b200c808de00088470005a
:100b000085ff070001f0a1000cf0a70001f0a00094
:100b1000cdff37006120e100cfff32000801be00a9
:100b20000200be00f7ff37006150e100fcff3a0011
:100b3000c9ff3700881f7800030478000300e00035
:100b400007003d0060001000e080180060011900ff
:100b5000e081190002003b0001f02d000300370086
:100b60000400070008f0a70001f0a0004f0478007f
:100b700000000600889fbe008a9fbe0000827000b1
:100b80000402710004827100260032000004be00dd
:100b90000200be006011b8006b0920009502200021
:100ba0000182cf000a0039000541b1000082cf0068
:100bb000070039000541b1000982cf000400390067
:100bc0000541b1000882cf00010039000541b100a4
:100bd00005425200120032000a003b00828171007f
:100be000610164008100d1000080d3008984d300ba
:100bf0000884d3008b05e8000442e800f7ff3a00c0
:100c0000070037000804440089844c0000004800b5
:100c1000818048008b05e9000442e900f9ff3a00b1
:100c20003dff07004f05be004f04be000000060058
:020000040000fa
:100c30000000fa00e024ef00e224ef00c422ef00fd
:100c4000cc22ef00c002a900c022a900c802a9005e
:100c5000c822a900c842a900c042a900c0c2a90078
:100c6000c922a900c902a900c8e2a9000080fa00af
:100c7000000006000000fa0005e1a9000421a90017
:100c80002108800000032000010070002008880077
:100c90000021ef0021058000f0ff28008080600027
:100ca0000000250001007000200588009460a80065
:100cb0008460a9000080fa00000006000000fa002d
:100cc0004822ef008540a9009540a800410580001a
:100cd0000070200001007000400588004362a800f9
:100ce0004342a9004322a9004302a90042c2a9002d
:100cf00042a2a9001112800030fe2f000080600087
:100d00008001b3001012880011128000c0ff2f0074
:100d1000008060000010a0001012880045e2a900c9
:100d20004402a90040c2a90041e2a8000080fa00e4
:100d3000000006000000fa00bdff0700cdff07001d
:100d4000deff07000080fa00000006000400fa0041
:100d5000889fbe00008fbe0002402200436724002f
:100d60001e00be003fff070002f02f00f3772400b3
:100d700068fe0700a9fe0700000078000040880018
:100d80000021ef0002402200436724001e00be0045
:100d900034ff07000004be0000408000cf80de006a
:100da0000081eb000289b900020178006002b900fd
:100db00084017800030141008081eb000300b8004a
:100dc0000101410082007800d0fe07000001be0052
:100dd0000800be00f1fd0700b1fe0700000078002a
:100de000100888009460a80005e1a8004f04be0028
:100df0000080fa00000006000000fa0000408000b9
:100e00000000e00005003400004080000000e90020
:100e100000408800100020000400370005e1a90010
:100e20000021ef009460a9000000eb000080fa00b0
:100e3000000006000200fa00000f78001e00780093
:100e4000cf80de009200200003002000820f5000bf
:100e5000838f580079003e000060010009003700d0
:100e6000130037001d00370027003700310037001e
:100e70003b003700450037004f003700590037006e
:100e800063003700c402a800c422a900cc02a90054
:100e9000cc22a900cc42a900c442a900c4c2a90026
:100ea000cd22a900cd02a900cce2a9006e00370036
:100eb000c402a900c422a800cc02a900cc22a90027
:100ec000cc42a900c442a900c4c2a900cd22a900f5
:100ed000cd02a900cce2a90063003700c402a9003a
:100ee000c422a900cc02a800cc22a900cc42a900af
:100ef000c442a900c4c2a900cd22a900cd02a90004
:100f0000cce2a90058003700c402a900c422a900fd
:100f1000cc02a900cc22a800cc42a900c442a9005e
:100f2000c4c2a900cd22a900cd02a900cce2a9002b
:100f30004d003700c402a900c422a900cc02a900b8
:100f4000cc22a900cc42a800c442a900c4c2a90076
:100f5000cd22a900cd02a900cce2a90042003700b1
:100f6000c402a900c422a900cc02a900cc22a90075
:100f7000cc42a900c442a800c4c2a900cd22a90045
:100f8000cd02a900cce2a90037003700c402a900b5
:100f9000c422a900cc02a900cc22a900cc42a900fd
:100fa000c442a900c4c2a800cd22a900cd02a90054
:100fb000cce2a9002c003700c402a900c422a90079
:100fc000cc02a900cc22a900cc42a900c442a900ad
:100fd000c4c2a900cd22a800cd02a900cce2a9007c
:100fe00021003700c402a900c422a900cc02a90034
:100ff000cc22a900cc42a900c442a900c4c2a900c5
:10100000cd22a900cd02a800cce2a900160037002d
:10101000c402a900c422a900cc02a900cc22a900c4
:10102000cc42a900c442a900c4c2a900cd22a90093
:10103000cd02a900cce2a8000b003700c402a90031
:10104000c422a900cc02a900cc22a900cc42a9004c
:10105000c442a900c4c2a900cd22a900cd02a900a2
:10106000cce2a900000000000080fa0000000600a9
:101070003600f800809fbe00829fbe00849fbe00a5
:10108000869fbe000000fa008540a9004012800043
:1010900068ff070000042000010020000c0007008a
:1010a0000080fa004f03be004f02be004f01be0099
:1010b0004f00be003600f900004006000000fa00b4
:1010c0001cff07000080eb005aff0700ffff3700fe
:020000040000fa
:1010d000f03fb1000180b10006003500ee030900c9
:1010e00000000000403fb1000180b100fbff3d0067
:1010f0001000b000203fb000020035000080090061
:081100000000000000000600e1
:020000040000fa
:1011080000080000020000000000000000000000cd
:020000040000fa
:0200000401f009
:04000c00f8ff0000f9
:020000040000fa
:0200000401f009
:04001000fbff0000f2
:020000040000fa
:0200000401f009
:04001c00fdff0000e4
:00000001FF
